{
  "_format": "hh-sol-artifact-1",
  "contractName": "StudentRecords",
  "sourceName": "contracts/StudentRecords.sol",
  "abi": [
    {
      "inputs": [
        {
          "internalType": "string",
          "name": "_usn",
          "type": "string"
        }
      ],
      "name": "getAllCourses",
      "outputs": [
        {
          "internalType": "string[]",
          "name": "",
          "type": "string[]"
        }
      ],
      "stateMutability": "view",
      "type": "function"
    },
    {
      "inputs": [
        {
          "internalType": "string",
          "name": "_usn",
          "type": "string"
        }
      ],
      "name": "getAllGrades",
      "outputs": [
        {
          "internalType": "string[]",
          "name": "",
          "type": "string[]"
        },
        {
          "internalType": "uint8[]",
          "name": "",
          "type": "uint8[]"
        }
      ],
      "stateMutability": "view",
      "type": "function"
    },
    {
      "inputs": [
        {
          "internalType": "string",
          "name": "_usn",
          "type": "string"
        }
      ],
      "name": "getAllStudentInfo",
      "outputs": [
        {
          "internalType": "string",
          "name": "",
          "type": "string"
        },
        {
          "internalType": "uint256",
          "name": "",
          "type": "uint256"
        },
        {
          "internalType": "string[]",
          "name": "",
          "type": "string[]"
        }
      ],
      "stateMutability": "view",
      "type": "function"
    },
    {
      "inputs": [
        {
          "internalType": "string",
          "name": "_usn",
          "type": "string"
        },
        {
          "internalType": "string",
          "name": "_course",
          "type": "string"
        }
      ],
      "name": "getCourseMaterial",
      "outputs": [
        {
          "internalType": "string",
          "name": "",
          "type": "string"
        }
      ],
      "stateMutability": "view",
      "type": "function"
    },
    {
      "inputs": [
        {
          "internalType": "string",
          "name": "_usn",
          "type": "string"
        },
        {
          "internalType": "string",
          "name": "_course",
          "type": "string"
        }
      ],
      "name": "getGrade",
      "outputs": [
        {
          "internalType": "uint8",
          "name": "",
          "type": "uint8"
        }
      ],
      "stateMutability": "view",
      "type": "function"
    },
    {
      "inputs": [
        {
          "internalType": "string",
          "name": "_usn",
          "type": "string"
        }
      ],
      "name": "getStudent",
      "outputs": [
        {
          "internalType": "string",
          "name": "",
          "type": "string"
        },
        {
          "internalType": "uint256",
          "name": "",
          "type": "uint256"
        }
      ],
      "stateMutability": "view",
      "type": "function"
    },
    {
      "inputs": [
        {
          "internalType": "string",
          "name": "_usn",
          "type": "string"
        },
        {
          "internalType": "string",
          "name": "_name",
          "type": "string"
        }
      ],
      "name": "registerStudent",
      "outputs": [],
      "stateMutability": "nonpayable",
      "type": "function"
    },
    {
      "inputs": [
        {
          "internalType": "string",
          "name": "_usn",
          "type": "string"
        },
        {
          "internalType": "string",
          "name": "_course",
          "type": "string"
        },
        {
          "internalType": "string",
          "name": "_material",
          "type": "string"
        }
      ],
      "name": "updateCourseMaterial",
      "outputs": [],
      "stateMutability": "nonpayable",
      "type": "function"
    },
    {
      "inputs": [
        {
          "internalType": "string",
          "name": "_usn",
          "type": "string"
        },
        {
          "internalType": "string",
          "name": "_course",
          "type": "string"
        },
        {
          "internalType": "uint8",
          "name": "_grade",
          "type": "uint8"
        }
      ],
      "name": "updateGrade",
      "outputs": [],
      "stateMutability": "nonpayable",
      "type": "function"
    },
    {
      "inputs": [
        {
          "internalType": "string",
          "name": "_usn",
          "type": "string"
        },
        {
          "internalType": "uint256",
          "name": "_learningTime",
          "type": "uint256"
        }
      ],
      "name": "updateLearningTime",
      "outputs": [],
      "stateMutability": "nonpayable",
      "type": "function"
    }
  ],
  "bytecode": "0x608060405234801561001057600080fd5b50611e4c806100206000396000f3fe608060405234801561001057600080fd5b506004361061009e5760003560e01c8063c43d33ac11610066578063c43d33ac14610157578063c986162914610189578063d0296612146101ba578063dcbfe9b8146101eb578063e830c21a146102075761009e565b80630a1b776c146100a35780633bb84dbe146100bf5780634cae0eb4146100ef578063525778a81461011f5780636579a74b1461013b575b600080fd5b6100bd60048036038101906100b891906112a8565b610237565b005b6100d960048036038101906100d49190611320565b6102d9565b6040516100e691906114aa565b60405180910390f35b610109600480360381019061010491906112a8565b610442565b60405161011691906114e8565b60405180910390f35b6101396004803603810190610134919061152f565b610506565b005b610155600480360381019061015091906115f0565b610748565b005b610171600480360381019061016c9190611320565b6107e1565b604051610180939291906116a5565b60405180910390f35b6101a3600480360381019061019e9190611320565b610a26565b6040516101b19291906117a8565b60405180910390f35b6101d460048036038101906101cf9190611320565b610cd4565b6040516101e29291906117df565b60405180910390f35b6102056004803603810190610200919061180f565b610e1f565b005b610221600480360381019061021c91906112a8565b61100f565b60405161022e91906118b6565b60405180910390f35b600080836040516102489190611914565b908152602001604051809103902060000180546102649061195a565b9050146102a6576040517f08c379a000000000000000000000000000000000000000000000000000000000815260040161029d906119d7565b60405180910390fd5b806000836040516102b79190611914565b908152602001604051809103902060000190816102d49190611ba3565b505050565b6060600080836040516102ec9190611914565b908152602001604051809103902060000180546103089061195a565b90500361034a576040517f08c379a000000000000000000000000000000000000000000000000000000000815260040161034190611cc1565b60405180910390fd5b60008260405161035a9190611914565b9081526020016040518091039020600201805480602002602001604051908101604052809291908181526020016000905b828210156104375783829060005260206000200180546103aa9061195a565b80601f01602080910402602001604051908101604052809291908181526020018280546103d69061195a565b80156104235780601f106103f857610100808354040283529160200191610423565b820191906000526020600020905b81548152906001019060200180831161040657829003601f168201915b50505050508152602001906001019061038b565b505050509050919050565b6000806000846040516104559190611914565b908152602001604051809103902060000180546104719061195a565b9050036104b3576040517f08c379a00000000000000000000000000000000000000000000000000000000081526004016104aa90611cc1565b60405180910390fd5b6000836040516104c39190611914565b9081526020016040518091039020600401826040516104e29190611914565b908152602001604051809103902060009054906101000a900460ff16905092915050565b600080846040516105179190611914565b908152602001604051809103902060000180546105339061195a565b905003610575576040517f08c379a000000000000000000000000000000000000000000000000000000000815260040161056c90611cc1565b60405180910390fd5b60648160ff1611156105bc576040517f08c379a00000000000000000000000000000000000000000000000000000000081526004016105b390611d2d565b60405180910390fd5b806000846040516105cd9190611914565b9081526020016040518091039020600401836040516105ec9190611914565b908152602001604051809103902060006101000a81548160ff021916908360ff1602179055506000805b6000856040516106269190611914565b9081526020016040518091039020600201805490508110156106e757836040516020016106539190611914565b604051602081830303815290604052805190602001206000866040516106799190611914565b9081526020016040518091039020600201828154811061069c5761069b611d4d565b5b906000526020600020016040516020016106b69190611dff565b60405160208183030381529060405280519060200120036106da57600191506106e7565b8080600101915050610616565b5080610742576000846040516106fd9190611914565b9081526020016040518091039020600201839080600181540180825580915050600190039060005260206000200160009091909190915090816107409190611ba3565b505b50505050565b600080836040516107599190611914565b908152602001604051809103902060000180546107759061195a565b9050036107b7576040517f08c379a00000000000000000000000000000000000000000000000000000000081526004016107ae90611cc1565b60405180910390fd5b806000836040516107c89190611914565b9081526020016040518091039020600101819055505050565b606060006060600080856040516107f89190611914565b908152602001604051809103902060000180546108149061195a565b905003610856576040517f08c379a000000000000000000000000000000000000000000000000000000000815260040161084d90611cc1565b60405180910390fd5b6000846040516108669190611914565b90815260200160405180910390206000016000856040516108879190611914565b9081526020016040518091039020600101546000866040516108a99190611914565b90815260200160405180910390206002018280546108c69061195a565b80601f01602080910402602001604051908101604052809291908181526020018280546108f29061195a565b801561093f5780601f106109145761010080835404028352916020019161093f565b820191906000526020600020905b81548152906001019060200180831161092257829003601f168201915b5050505050925080805480602002602001604051908101604052809291908181526020016000905b82821015610a135783829060005260206000200180546109869061195a565b80601f01602080910402602001604051908101604052809291908181526020018280546109b29061195a565b80156109ff5780601f106109d4576101008083540402835291602001916109ff565b820191906000526020600020905b8154815290600101906020018083116109e257829003601f168201915b505050505081526020019060010190610967565b5050505090509250925092509193909250565b60608060008084604051610a3a9190611914565b90815260200160405180910390206000018054610a569061195a565b905003610a98576040517f08c379a0000000000000000000000000000000000000000000000000000000008152600401610a8f90611cc1565b60405180910390fd5b60008084604051610aa99190611914565b908152602001604051809103902060020180549050905060008167ffffffffffffffff811115610adc57610adb61117d565b5b604051908082528060200260200182016040528015610b0a5781602001602082028036833780820191505090505b50905060005b82811015610bd357600086604051610b289190611914565b9081526020016040518091039020600401600087604051610b499190611914565b90815260200160405180910390206002018281548110610b6c57610b6b611d4d565b5b90600052602060002001604051610b839190611dff565b908152602001604051809103902060009054906101000a900460ff16828281518110610bb257610bb1611d4d565b5b602002602001019060ff16908160ff16815250508080600101915050610b10565b50600085604051610be49190611914565b90815260200160405180910390206002018181805480602002602001604051908101604052809291908181526020016000905b82821015610cc3578382906000526020600020018054610c369061195a565b80601f0160208091040260200160405190810160405280929190818152602001828054610c629061195a565b8015610caf5780601f10610c8457610100808354040283529160200191610caf565b820191906000526020600020905b815481529060010190602001808311610c9257829003601f168201915b505050505081526020019060010190610c17565b505050509150935093505050915091565b6060600080600084604051610ce99190611914565b90815260200160405180910390206000018054610d059061195a565b905003610d47576040517f08c379a0000000000000000000000000000000000000000000000000000000008152600401610d3e90611cc1565b60405180910390fd5b600083604051610d579190611914565b9081526020016040518091039020600001600084604051610d789190611914565b908152602001604051809103902060010154818054610d969061195a565b80601f0160208091040260200160405190810160405280929190818152602001828054610dc29061195a565b8015610e0f5780601f10610de457610100808354040283529160200191610e0f565b820191906000526020600020905b815481529060010190602001808311610df257829003601f168201915b5050505050915091509150915091565b60008084604051610e309190611914565b90815260200160405180910390206000018054610e4c9061195a565b905003610e8e576040517f08c379a0000000000000000000000000000000000000000000000000000000008152600401610e8590611cc1565b60405180910390fd5b80600084604051610e9f9190611914565b908152602001604051809103902060030183604051610ebe9190611914565b90815260200160405180910390209081610ed89190611ba3565b506000805b600085604051610eed9190611914565b908152602001604051809103902060020180549050811015610fae5783604051602001610f1a9190611914565b60405160208183030381529060405280519060200120600086604051610f409190611914565b90815260200160405180910390206002018281548110610f6357610f62611d4d565b5b90600052602060002001604051602001610f7d9190611dff565b6040516020818303038152906040528051906020012003610fa15760019150610fae565b8080600101915050610edd565b508061100957600084604051610fc49190611914565b9081526020016040518091039020600201839080600181540180825580915050600190039060005260206000200160009091909190915090816110079190611ba3565b505b50505050565b6060600080846040516110229190611914565b9081526020016040518091039020600001805461103e9061195a565b905003611080576040517f08c379a000000000000000000000000000000000000000000000000000000000815260040161107790611cc1565b60405180910390fd5b6000836040516110909190611914565b9081526020016040518091039020600301826040516110af9190611914565b908152602001604051809103902080546110c89061195a565b80601f01602080910402602001604051908101604052809291908181526020018280546110f49061195a565b80156111415780601f1061111657610100808354040283529160200191611141565b820191906000526020600020905b81548152906001019060200180831161112457829003601f168201915b5050505050905092915050565b6000604051905090565b600080fd5b600080fd5b600080fd5b600080fd5b6000601f19601f8301169050919050565b7f4e487b7100000000000000000000000000000000000000000000000000000000600052604160045260246000fd5b6111b58261116c565b810181811067ffffffffffffffff821117156111d4576111d361117d565b5b80604052505050565b60006111e761114e565b90506111f382826111ac565b919050565b600067ffffffffffffffff8211156112135761121261117d565b5b61121c8261116c565b9050602081019050919050565b82818337600083830152505050565b600061124b611246846111f8565b6111dd565b90508281526020810184848401111561126757611266611167565b5b611272848285611229565b509392505050565b600082601f83011261128f5761128e611162565b5b813561129f848260208601611238565b91505092915050565b600080604083850312156112bf576112be611158565b5b600083013567ffffffffffffffff8111156112dd576112dc61115d565b5b6112e98582860161127a565b925050602083013567ffffffffffffffff81111561130a5761130961115d565b5b6113168582860161127a565b9150509250929050565b60006020828403121561133657611335611158565b5b600082013567ffffffffffffffff8111156113545761135361115d565b5b6113608482850161127a565b91505092915050565b600081519050919050565b600082825260208201905092915050565b6000819050602082019050919050565b600081519050919050565b600082825260208201905092915050565b60005b838110156113cf5780820151818401526020810190506113b4565b60008484015250505050565b60006113e682611395565b6113f081856113a0565b93506114008185602086016113b1565b6114098161116c565b840191505092915050565b600061142083836113db565b905092915050565b6000602082019050919050565b600061144082611369565b61144a8185611374565b93508360208202850161145c85611385565b8060005b8581101561149857848403895281516114798582611414565b945061148483611428565b925060208a01995050600181019050611460565b50829750879550505050505092915050565b600060208201905081810360008301526114c48184611435565b905092915050565b600060ff82169050919050565b6114e2816114cc565b82525050565b60006020820190506114fd60008301846114d9565b92915050565b61150c816114cc565b811461151757600080fd5b50565b60008135905061152981611503565b92915050565b60008060006060848603121561154857611547611158565b5b600084013567ffffffffffffffff8111156115665761156561115d565b5b6115728682870161127a565b935050602084013567ffffffffffffffff8111156115935761159261115d565b5b61159f8682870161127a565b92505060406115b08682870161151a565b9150509250925092565b6000819050919050565b6115cd816115ba565b81146115d857600080fd5b50565b6000813590506115ea816115c4565b92915050565b6000806040838503121561160757611606611158565b5b600083013567ffffffffffffffff8111156116255761162461115d565b5b6116318582860161127a565b9250506020611642858286016115db565b9150509250929050565b600082825260208201905092915050565b600061166882611395565b611672818561164c565b93506116828185602086016113b1565b61168b8161116c565b840191505092915050565b61169f816115ba565b82525050565b600060608201905081810360008301526116bf818661165d565b90506116ce6020830185611696565b81810360408301526116e08184611435565b9050949350505050565b600081519050919050565b600082825260208201905092915050565b6000819050602082019050919050565b61171f816114cc565b82525050565b60006117318383611716565b60208301905092915050565b6000602082019050919050565b6000611755826116ea565b61175f81856116f5565b935061176a83611706565b8060005b8381101561179b5781516117828882611725565b975061178d8361173d565b92505060018101905061176e565b5085935050505092915050565b600060408201905081810360008301526117c28185611435565b905081810360208301526117d6818461174a565b90509392505050565b600060408201905081810360008301526117f9818561165d565b90506118086020830184611696565b9392505050565b60008060006060848603121561182857611827611158565b5b600084013567ffffffffffffffff8111156118465761184561115d565b5b6118528682870161127a565b935050602084013567ffffffffffffffff8111156118735761187261115d565b5b61187f8682870161127a565b925050604084013567ffffffffffffffff8111156118a05761189f61115d565b5b6118ac8682870161127a565b9150509250925092565b600060208201905081810360008301526118d0818461165d565b905092915050565b600081905092915050565b60006118ee82611395565b6118f881856118d8565b93506119088185602086016113b1565b80840191505092915050565b600061192082846118e3565b915081905092915050565b7f4e487b7100000000000000000000000000000000000000000000000000000000600052602260045260246000fd5b6000600282049050600182168061197257607f821691505b6020821081036119855761198461192b565b5b50919050565b7f53747564656e7420616c726561647920726567697374657265642e0000000000600082015250565b60006119c1601b8361164c565b91506119cc8261198b565b602082019050919050565b600060208201905081810360008301526119f0816119b4565b9050919050565b60008190508160005260206000209050919050565b60006020601f8301049050919050565b600082821b905092915050565b600060088302611a597fffffffffffffffffffffffffffffffffffffffffffffffffffffffffffffffff82611a1c565b611a638683611a1c565b95508019841693508086168417925050509392505050565b6000819050919050565b6000611aa0611a9b611a96846115ba565b611a7b565b6115ba565b9050919050565b6000819050919050565b611aba83611a85565b611ace611ac682611aa7565b848454611a29565b825550505050565b600090565b611ae3611ad6565b611aee818484611ab1565b505050565b5b81811015611b1257611b07600082611adb565b600181019050611af4565b5050565b601f821115611b5757611b28816119f7565b611b3184611a0c565b81016020851015611b40578190505b611b54611b4c85611a0c565b830182611af3565b50505b505050565b600082821c905092915050565b6000611b7a60001984600802611b5c565b1980831691505092915050565b6000611b938383611b69565b9150826002028217905092915050565b611bac82611395565b67ffffffffffffffff811115611bc557611bc461117d565b5b611bcf825461195a565b611bda828285611b16565b600060209050601f831160018114611c0d5760008415611bfb578287015190505b611c058582611b87565b865550611c6d565b601f198416611c1b866119f7565b60005b82811015611c4357848901518255600182019150602085019450602081019050611c1e565b86831015611c605784890151611c5c601f891682611b69565b8355505b6001600288020188555050505b505050505050565b7f53747564656e74206e6f7420726567697374657265642e000000000000000000600082015250565b6000611cab60178361164c565b9150611cb682611c75565b602082019050919050565b60006020820190508181036000830152611cda81611c9e565b9050919050565b7f4772616465206d757374206265206265747765656e203020616e64203130302e600082015250565b6000611d1760208361164c565b9150611d2282611ce1565b602082019050919050565b60006020820190508181036000830152611d4681611d0a565b9050919050565b7f4e487b7100000000000000000000000000000000000000000000000000000000600052603260045260246000fd5b60008154611d898161195a565b611d9381866118d8565b94506001821660008114611dae5760018114611dc357611df6565b60ff1983168652811515820286019350611df6565b611dcc856119f7565b60005b83811015611dee57815481890152600182019150602081019050611dcf565b838801955050505b50505092915050565b6000611e0b8284611d7c565b91508190509291505056fea26469706673582212201e1d0f46f800be83618a5e26a623ef239a8aae4ffa9a09e880efcd9e4ecc344264736f6c63430008180033",
  "linkReferences": {},
  "deployedLinkReferences": {}
}